S01200004D61747269785F3878382E7372656356
S11300000C944A000C945F000C945F000C945F0005
S11300100C945F000C945F000C945F000C945F00E0
S11300200C945F000C945F000C945F000C945F00D0
S11300300C945F000C945F000C945F000C945F00C0
S11300400C945F000C945F000C945F000C945F00B0
S11300500C945F0098009A009C009E00A000A200EF
S1130060A400A600B000B200B400B600B800BA0004
S1130070BC00BE00C900CB00CD00CF00D100D3002E
S1130080D500D700E100E300E500E700E900EB005C
S1130090ED00EF0011241FBECFE5D4E0DEBFCDBFDD
S11300A010E0A0E6B0E0E2EEF2E002C005900D92AE
S11300B0A03EB107D9F70E9461000C946F010C9423
S11300C00000CF93DF93CDB7DEB7C058D1090FB688
S11300D0F894DEBF0FBECDBFCE018F5B9F4F0E9451
S11300E0F100BE016F5B7F4FCE0101960E94F700C5
S11300F0CE0101960E94F400F4CF81B3806C81BBE1
S113010084B38C6F84BB87B38FEF87BB88BB82B308
S11301108F7382BB85B3837085BB08950895FB01FB
S11301203197E830F10598F4E65DFF4F0C946901CE
S1130130C7980DC0C6980BC0C59809C0C49807C01D
S1130140C39805C0C29803C0C19801C0C098FA0101
S11301503197E830F10598F4EE5CFF4F0C94690197
S1130160969A0895979A0895AA9A0895AB9A08952D
S1130170AC9A0895AD9A0895AE9A0895AF9A0895E9
S1130180FB013197E830F10598F4E65CFF4F0C94DD
S11301906901C79A0DC0C69A0BC0C59A09C0C49A12
S11301A007C0C39A05C0C29A03C0C19A01C0C09ACD
S11301B0FA013197E830F10598F4EE5BFF4F0C94A7
S11301C069019698089597980895AA980895AB9808
S11301D00895AC980895AD980895AE980895AF9891
S11301E008950E947D0008950E948E0008954F9204
S11301F05F926F927F928F929F92AF92BF92CF92B3
S1130200DF92EF92FF920F931F93CF93DF93CDB7BB
S1130210DEB7C054D1090FB6F894DEBF0FBECDBF10
S11302203C014B0180E4E0EAF0E0DE01119601902C
S11302300D928A95E1F7CE0101965C01CC24C3941A
S1130240D12C412C512C24C0F70181917F010F5FE7
S11302501F4F813081F4A801B601C4010E948F00B0
S11302608FEC97E00197F1F700C00000A801B601F8
S1130270C4010E94C0000830110531F79FEFC91A6C
S1130280D90AE8E0AE0EB11CF9E0CF16D10421F092
S11302907501042D152DD8CFB401C3010E94F700B8
S11302A0C301C05CDF4F0FB6F894DEBF0FBECDBFF5
S11302B0DF91CF911F910F91FF90EF90DF90CF903E
S11302C0BF90AF909F908F907F906F905F904F9072
S11302D00895EE0FFF1F0590F491E02D0994F89412
S10502E0FFCF4A
S11302E20000000101000000000001000001000004
S11302F200010000000001000001000000000100F4
S113030200010101010101000001000000000100DF
S113031200010000000001000001000000000100D3
S113032200010101010000000001000000010000C1
S113033200010000000100000001010101000000B1
S113034200010000010000000001000000010000A3
S11303520001000000010000000101010100000091
S9030000FC
